:100000000C945C000C9479000C9479000C947900A9
:100010000C9479000C9479000C9479000C9479007C
:100020000C9479000C9479000C9479000C9479006C
:100030000C9479000C9479000C9479000C9479005C
:100040000C9467010C9479000C9479000C9479005D
:100050000C9479000C9479000C9479000C9479003C
:100060000C9479000C947900000000002500280011
:100070002B0000000000240027002A0004040404D0
:100080000404040402020202020203030303030342
:10009000010204081020408001020408102001021F
:1000A00004081020000000080002010000030407FB
:1000B000000000000000000011241FBECFEFD8E0B8
:1000C000DEBFCDBF21E0A0E0B1E001C01D92A131B3
:1000D000B207E1F711E0A0E0B1E0E0EAF6E002C02B
:1000E00005900D92A030B107D9F70E94AF010C9492
:1000F0004E030C9400008E50806480937C008091AD
:100100007A00806480937A0080917A0086FDFCCF2B
:1001100080917800909179000895CF93DF9390E0DB
:10012000FC01E057FF4F249184589F4FFC018491BC
:100130008823D1F090E0880F991FFC01EE58FF4F03
:10014000A591B491FC01E859FF4FC591D49161117B
:100150000EC09FB7F8948C91E22FE0958E238C937C
:100160002881E223E8839FBFDF91CF9108958FB765
:10017000F894EC91E22BEC938FBFF6CF90E0FC016A
:10018000EC55FF4F2491FC01E057FF4F3491FC01E7
:10019000E458FF4FE491EE23D9F0222349F02430B4
:1001A00031F1B8F4223059F12330D9F0213019F16E
:1001B000F0E0EE0FFF1FE859FF4FA591B4918FB704
:1001C000F894EC91611124C030953E233C938FBF8D
:1001D00008952730B9F0283059F78091B0008F7D0D
:1001E00014C0809180008F7780938000E1CF809150
:1001F00080008F7DF9CF84B58F7784BDD9CF84B54A
:100200008F7DFBCF8091B0008F778093B000D0CFEF
:100210003E2BDCCF1F93CF93DF93182FEB0161E0D0
:100220000E948D00209739F460E0812FDF91CF91FB
:100230001F910C94BE00CF3FD10511F461E0F5CFC2
:10024000E12FF0E0EC55FF4FE491E43071F150F410
:10025000E230E1F0E330F9F0E13081F0C038D1056F
:100260001CF3ECCFE73059F1E830C1F78091B000D2
:1002700080628093B000C093B40004C084B58068ED
:1002800084BDC7BDDF91CF911F91089584B5806271
:1002900084BDC8BDF7CF80918000806880938000C6
:1002A000D0938900C0938800EDCF80918000806258
:1002B00080938000D0938B00C0938A00E3CF80911D
:1002C000B00080688093B000C093B300DBCF1F9272
:1002D0001FB61F9211242F933F938F939F93AF9339
:1002E000BF938091050190910601A0910701B09103
:1002F00008013091040123E0230F2D3750F50196BA
:10030000A11DB11D20930401809305019093060166
:10031000A0930701B0930801809100019091010121
:10032000A0910201B09103010196A11DB11D80931E
:10033000000190930101A0930201B0930301BF91CA
:10034000AF919F918F913F912F911F901FBE1F9052
:10035000189526E8230F0296A11DB11DD3CF00D01A
:1003600000D000D0CDB7DEB7789484B5826084BD6C
:1003700084B5816084BD85B5826085BD85B58160A9
:1003800085BD80916E00816080936E001092810027
:1003900080918100826080938100809181008160E2
:1003A00080938100809180008160809380008091A3
:1003B000B10084608093B1008091B000816080932F
:1003C000B00080917A00846080937A0080917A00F6
:1003D000826080937A0080917A00816080937A00B5
:1003E00080917A00806880937A001092C10060E06A
:1003F0008EE00E948D0060E08FE00E948D0061E041
:100400008BE00E948D0061E08AE00E948D0061E037
:1004100089E00E948D0061E088E00E948D0061E02B
:1004200087E00E948D0061E086E00E948D00212C13
:1004300082E0382E412C92E0592E612C712C0FEF66
:1004400013E08FE00E947B0089839A8329813A819F
:100450003093100120930F01273232400CF478C002
:1004600061E089E00E94BE0060E088E00E94BE007A
:1004700060E087E00E94BE0061E086E00E94BE006E
:1004800029813A8132503093100120930F01A091BD
:100490000F01B09110012FEF30E00E94E402A301A0
:1004A00092010E94EB0249015A01309310012093FE
:1004B0000F018EE00E947B008D839E838D819E8143
:1004C000865D91408135910508F475C0D8018D8114
:1004D0009E81A81BB90B6C018A179B070CF46D0158
:1004E000D0920A01C09209010D2C000CEE08FF0801
:1004F000A50194010E941503A70196010E94EB0239
:1005000030930E0120930D01AD81BE81A5019401B0
:100510000E941503A70196010E94EB0230930C0183
:1005200020930B0160910D0170910E018AE00E94F1
:100530000A0160910B0170910C018BE00E940A018D
:1005400020E030E0232B09F47CCF0E94000079CF1B
:1005500089819A8160E0863D9140CCF489E00E94D7
:10056000BE0061E088E00E94BE0061E087E00E947A
:10057000BE0060E086E00E94BE00C10129813A8190
:10058000821B930B9093100180930F0180CF89E021
:100590000E94BE0060E088E00E94BE0060E087E04C
:1005A0000E94BE0060E086E00E94BE001092100132
:1005B00010920F016CCF90920E0180920D019092DB
:1005C0000C0180920B01AECF0E943F03B7FF08954C
:1005D000821B930B0895052E97FB1EF400940E9436
:1005E000020357FD07D00E941D0307FC03D04EF401
:1005F0000C94020350954095309521953F4F4F4FF5
:100600005F4F089590958095709561957F4F8F4FBE
:100610009F4F08950E943F03A59F900DB49F900D9A
:10062000A49F800D911D11240895B7FF0C940A0317
:100630000E940A03821B930B0895A1E21A2EAA1BA3
:10064000BB1BFD010DC0AA1FBB1FEE1FFF1FA21782
:10065000B307E407F50720F0A21BB30BE40BF50B7F
:10066000661F771F881F991F1A9469F76095709508
:10067000809590959B01AC01BD01CF010895A29F8B
:10068000B001B39FC001A39F700D811D1124911D66
:10069000B29F700D811D1124911D0895F894FFCF14
:00000001FF
